:100000000C942D010C9455010C9455010C94550140
:100010000C9455010C9455010C9455010C94550108
:100020000C9455010C9455010C946D070C94DC074D
:100030000C9455010C9455010C9455010C945501E8
:100040000C9455010C9455010C9455010C945501D8
:100050000C9455010C9455010C9455010C942307F4
:100060000C9455010C9455010C9455010C945501B8
:100070000C9455010C9455010C9455010C945501A8
:100080000C9455010C9455010C9455010C94550198
:100090000C9455010C9455010C9455010C94550188
:1000A0000C9455010C9455010C945501000000006E
:1000B000000000002A2B28000000000000000000C3
:1000C0000000000000000000000000002C9EB4A012
:1000D000A1A2A434A6A7A5AE362D3738271E1F200F
:1000E000212223242526B333B62EB7B89F848586D4
:1000F0008788898A8B8C8D8E8F9091929394959618
:100100009798999A9B9C9D2F3130A3AD3504050695
:100110000708090A0B0C0D0E0F10111213141516F7
:100120001718191A1B1C1DAFB1B0B500080B00023F
:100130000202000009040000010202000005240080
:100140001001052401010104240206052406000112
:100150000705810310004009040100020A000000A5
:100160000705020240000007058302400000040367
:10017000090412010002EF02014041233680000110
:100180000102030141726475696E6F204C4C43009B
:1001900041726475696E6F204C656F6E6172646F39
:1001A0000000000000250028002B002E0031000078
:1001B000000000240027002A002D0030000000006D
:1001C000002300260029002C002F0004040404044E
:1001D00003040502020202040302020202060606EA
:1001E0000606060404020202040404080201104088
:1001F0008040102040804080080204018040201090
:100200000201108010204040200000000200090F71
:100210000000030401000C000000000000000000CA
:10022000000000000000000005010906A101850290
:10023000050719E029E715002501750195088102D8
:100240009501750881039506750815002573050746
:10025000190029738100C0000E0A11241FBECFEFC0
:10026000DAE0DEBFCDBF11E0A0E0B1E0E8E9FBE1FC
:1002700002C005900D92A63DB107D9F722E0A6ED88
:10028000B1E001C01D92A838B207E1F711E0CDE25C
:10029000D1E004C02197FE010E94820DCC32D1072B
:1002A000C9F70E94AC0A0C94CA0D0C940000CF93BD
:1002B000DF93FC01818190915902482F490F552706
:1002C000551F483051059CF5A281B381109709F55F
:1002D00025E532E0338322832081209357028093E7
:1002E000580280915A02820F808320915B02A22FD4
:1002F000B0915C028A2F821B8917E8F481813D91BD
:10030000C82FD0E0C45FDE4F38838F5F8183F2CF88
:10031000D90118962D913C91199721153105C1F7F6
:1003200025E532E019963C932E931897D5CF80E0BF
:10033000DF91CF91089581E0FBCFFC018091040211
:10034000882311F13FB7F89482E08093E90020916F
:10035000F200822F90E01816190614F481E090E064
:10036000882339F0289844E6409303024091F10035
:100370004083222339F02091F200211103C02BE6A3
:100380002093E8003FBF08958FEF9FEF08953FB798
:10039000F8948091FF0190910002A0910102B09128
:1003A000020226B5A89B05C02F3F19F00196A11D9A
:1003B000B11D3FBFBA2FA92F982F8827BC01CD01AF
:1003C000620F711D811D911D42E0660F771F881F0E
:1003D000991F4A95D1F70895CF92DF92EF92FF923D
:1003E0000E94C7016B017C010E94C7016C197D0945
:1003F0008E099F09683E734081059105A8F3FF901F
:10040000EF90DF90CF9008954091E4015091E50185
:100410002091E2013091E30142175307B4F4909127
:10042000E8009570E1F39091E80092FD19C0809387
:10043000F1008091E4019091E50101968F73992775
:10044000892B19F48EEF8093E8008091E40190915C
:10045000E50101969093E5018093E40181E0089520
:1004600080E00895EF92FF920F931F93CF93DF9355
:10047000F82E192FE62E042F81E0860F880F0E9498
:10048000040283E00E940402CF2DD12FEC0EFD2E3A
:10049000F11CCE15DF05B9F007FF13C0FE018491F2
:1004A0000E940402182F80E00E94040281232196FA
:1004B0008111EFCFDF91CF911F910F91FF90EF90BE
:1004C00008958881EDCF81E0F5CFDF92EF92FF9222
:1004D0000F931F93CF93DF93D82E8A01EB017B01FB
:1004E000E40EF51ECE15DF0559F0D7FE12C0FE0151
:1004F00084910E94040221968111F4CF0FEF1FEF27
:10050000C801DF91CF911F910F91FF90EF90DF9085
:1005100008958881EECF2FB7F89487708093E90013
:100520009091E800892F807295FF04C09091F200AD
:1005300080E4891B2FBF08957F928F929F92AF9284
:10054000BF92CF92DF92EF92FF920F931F93CF93C0
:10055000DF93C82E8B017A0180910402811110C0B3
:100560008FEF9FEFDF91CF911F910F91FF90EF9051
:10057000DF90CF90BF90AF909F908F907F90089525
:100580008091E80180FF05C08091E0008260809347
:10059000E000CE2DDF2DD12C8AEFB82E8C2D877068
:1005A000982E8C2D8072882E8C2D8074782E9AE354
:1005B000A92E209719F4DD2009F44EC08C2D0E943D
:1005C0008B02811106C0BA94BB2051F20E94EC014B
:1005D000F0CF8C171D0611F00CF08C2F9FB7F894FC
:1005E0009092E9002091E80025FD02C09FBFE1CF75
:1005F000282F30E0C21BD30B882029F08150A0F0B7
:100600001092F100FBCFF801C7FC0AC0815050F0F6
:1006100041914093F100FACF44914093F10031961B
:100620008150D0F7020F131FDD2021F0A092E800C7
:10063000D12CDCCF8091E80085FD07C0A092E800B6
:10064000DD24D394209791F2F3CF209779F6772089
:1006500069F2A092E800CACF5D9884E68093E70132
:10066000C70180CF615030F02091F100FC01208360
:100670000196F8CF289884E680930302089580912C
:10068000DA0181110DC082E08093D60184E080936D
:10069000D7011092D9011092D80181E08093DA013C
:1006A00086ED91E00895EF92FF921F93CF93DF9331
:1006B0001F92CDB7DEB77C018091660281112AC0FE
:1006C00011E01093590210935A028FE592E0909333
:1006D0005C0280935B0210925E0210925D028EE8D3
:1006E00091E090935602809355021092610210920D
:1006F00060021092630210926202109364021093DF
:10070000650281EC80935F020E943F030E945701C3
:100710001093660282E0898341E050E0BE016F5F82
:100720007F4F809158020E949C0297FD08C08091E3
:10073000580248E050E0B70180640E949C020F908C
:10074000DF91CF911F91FF90EF9008950F931F932A
:10075000CF93DF931F92CDB7DEB782E0898342E467
:1007600050E06CE271E080E80E9465020E943F0365
:10077000DC0112960D911C910115110589F0D8012B
:10078000ED91FC910280F381E02DBE016F5F7F4F00
:10079000C801099597FD04C0F80100851185ECCFCB
:1007A00089810F90DF91CF911F910F910895CF9381
:1007B000DF93EC0180910B01882331F083E00E94EC
:1007C0009C021816190634F081E090E09B838A831E
:1007D00080E090E0DF91CF910895CF93DF931F9257
:1007E000CDB7DEB76983DC01ED91FC910280F38126
:1007F000E02D41E050E0BE016F5F7F4F09950F9003
:10080000DF91CF91089583E08093E9008091F20019
:10081000882319F08AE38093E800089583E00E941A
:100820008B0290E00895CF93DF931F92CDB7DEB790
:10083000FC018485958597FD08C02FEF3FEF358734
:1008400024870F90DF91CF910895CE0101960E94E9
:100850009D01019719F4898190E0F3CF8FEF9FEF0D
:10086000F0CF0F931F93CF93DF931F92CDB7DEB7D7
:100870008C01FC018485958597FF0BC0CE01019604
:100880000E949D01019771F4898190E0F80195879C
:100890008487F801848595850F90DF91CF911F9112
:1008A0000F9108958FEF9FEFF1CFFC01848595851F
:1008B00097FD0BC09FB7F89482E08093E900809188
:1008C000F2009FBF90E0019608959FB7F89482E0F0
:1008D0008093E9008091F2009FBF90E008958150DD
:1008E0008F3008F047C0E82FF0E0E758FB4F0C943A
:1008F000820D96049A0488048E049204BA04BA0401
:10090000BA049D04A304A704AB04B104BA04B5045B
:10091000809180008F77809380000895809180007F
:100920008F7DF9CF80918000877FF5CF84B58F7759
:1009300084BD089584B58F7DFBCF809190008F7723
:10094000809390000895809190008F7DF9CF8091E1
:100950009000877FF5CF8091C0008F778093C00093
:1009600008958091C0008F7DF9CF8091C200877F6C
:100970008093C20008951F93CF93DF93282F30E018
:10098000F901E75FFD4F8491F901E651FE4FD491E3
:10099000F901E553FE4FC491CC23A9F0162F811124
:1009A0000E946F04EC2FF0E0EE0FFF1FEF55FE4F9B
:1009B000A591B4918FB7F894EC91111108C0D0951E
:1009C000DE23DC938FBFDF91CF911F910895DE2B43
:1009D000F8CFDC01FB0112962C911297848195814E
:1009E0002817190641F491818081813A31F49D7F65
:1009F00081E0913009F080E008958132E1F79B3089
:100A000029F482811F968C9381E008959A3099F79A
:100A1000828150968C93F8CFDC01FB0188E48083BF
:100A200089E4818384E482831D969C911D979F7045
:100A30009F5B93831D968D919C9124E0969587955D
:100A40002A95E1F78F708F5B848385E00895EF929C
:100A5000FF920F931F93CF93DF93FB0120812138E7
:100A600071F52381223259F5DC0112964C912481D3
:100A700035814217130619F5EC010B851C85F12C05
:100A8000E12C0115110589F0F8014481558162813D
:100A9000738180E80E9465028F3F980749F0E80E55
:100AA000F91ED8010D911C91ECCF81E08F87C70111
:100AB000DF91CF911F910F91FF90EF90089590E0FB
:100AC00080E0F6CFCF93DF93CDB7DEB769970FB64F
:100AD000F894DEBF0FBECDBFFC01DB018C918F5FB0
:100AE0008C939E012D5F3F4F8DE0D9011D928A9519
:100AF000E9F729E0298384E08A8391E09D8383E0FC
:100B00008E832A8721E22B879C879D879F8722E2FD
:100B1000288B27E02B8B25E02C8B8E8B20E430E07C
:100B2000388F2F8B998F82818B8395858685998BC2
:100B30008A8B838180688D8B49E150E0BE016F5FB5
:100B40007F4F80E00E94650269960FB6F894DEBF81
:100B50000FBECDBFDF91CF910895CF92DF92EF927C
:100B6000FF920F931F93CF93DF936C01EB017B01F7
:100B7000E40EF51E10E000E0CE15DF0581F069916E
:100B80006D30D1F3D601ED91FC910190F081E02D13
:100B9000C6010995892B19F00F5F1F4FEDCFC801D2
:100BA000DF91CF911F910F91FF90EF90DF90CF9049
:100BB0000895DC016838A0F06858FD0186E06623DE
:100BC00021F09681961301C01682815031968111D1
:100BD000F6CFCD0104960E94530381E090E0089582
:100BE000E62FF0E067FF12C0E058F10981E090E0E5
:100BF00001C0880FEA95EAF7809514969C911497A6
:100C0000892314968C93149760E0D7CFE455FF4F57
:100C10006491662359F067FFD0CF14968C91149796
:100C20008D7F14968C9314976F77C7CF90E080E0F8
:100C30000895DC01683888F1685816968C911697EB
:100C4000861721F117968C9117978617F9F0189649
:100C50008C9118978617D1F019968C911997861751
:100C6000A9F01A968C911A97861781F01B968C9191
:100C70001B97861759F0FD01369690E080E0219190
:100C8000211139C08A0F9B1FFC016683CD01049698
:100C90000E94530381E090E00895E62FF0E067FFA3
:100CA00011C0E058F10921E030E001C0220FEA95BF
:100CB000EAF714968C911497822B14968C931497C0
:100CC00060E0BBCFE455FF4F6491611109C081E042
:100CD00090E013969C938E93129790E080E0089595
:100CE00067FFABCF14968C911497826014968C9307
:100CF00014976F77A2CF01968630910509F0BFCF88
:100D0000E6CFEF92FF921F93CF93DF93EC01162F64
:100D10000E9419067C01612FCE010E94D905C701EE
:100D20009927DF91CF911F91FF90EF90089508953B
:100D300090E080E00895FC0101900020E9F73197F0
:100D4000AF01481B590BBC0185E092E00C94D7031E
:100D50008F929F92AF92BF92CF92DF92EF92FF92CB
:100D60000F931F93CF93DF93CDB7DEB7A1970FB645
:100D7000F894DEBF0FBECDBF6B017C01F7FE41C012
:100D80006DE285E092E00E94ED038C01222733277B
:100D9000A9012C193D094E095F0919A2CE018196BE
:100DA0007C019AE0892E912CA12CB12CCA01B901A9
:100DB000A50194010E94600D605DF70162937F01BF
:100DC000211531054105510589F790E080E0309704
:100DD00019F0CF010E949B06800F911FA1960FB6BC
:100DE000F894DEBF0FBECDBFDF91CF911F910F9161
:100DF000FF90EF90DF90CF90BF90AF909F908F903B
:100E00000895AC019B0119A28E010F5D1F4F8AE06E
:100E1000C82ED12CE12CF12CCA01B901A7019601F1
:100E20000E94600D605DF80162938F01211531050C
:100E30004105510589F790E080E0309779F2CF01C4
:100E40000E949B06CBCF1F920F920FB60F921124D8
:100E50002F933F938F939F93AF93BF938091FB0109
:100E60009091FC01A091FD01B091FE013091FA0139
:100E700023E0230F2D3758F50196A11DB11D2093B6
:100E8000FA018093FB019093FC01A093FD01B093C4
:100E9000FE018091FF0190910002A0910102B091AA
:100EA00002020196A11DB11D8093FF0190930002E3
:100EB000A0930102B0930202BF91AF919F918F91D5
:100EC0003F912F910F900FBE0F901F90189526E81D
:100ED000230F0296A11DB11DD2CF1F920F920FB604
:100EE0000F9211248F939F938091E1009091E100E4
:100EF000937F9093E10083FF0FC01092E90091E08F
:100F00009093EB001092EC0092E39093ED0010921E
:100F1000040298E09093F00082FF22C093E0909347
:100F2000E9009091F200992319F09AE39093E80078
:100F30009091E701992341F09091E70191509093AE
:100F4000E701911101C05D9A90910302992341F04C
:100F500090910302915090930302911101C0289A3D
:100F600084FF18C08091E2008E7E81608093E20051
:100F70008091E1008F7E8093E1008091E8018E7E78
:100F800080618093E8019F918F910F900FBE0F9029
:100F90001F90189580FFF7CF8091E2008E7E8061D0
:100FA0008093E2008091E1008E7E8093E100809149
:100FB000E8018E7E8160E5CF1F920F920FB60F92EF
:100FC0001124CF92DF92EF92FF920F931F932F93F2
:100FD0003F934F935F936F937F938F939F93AF93C1
:100FE000BF93EF93FF93CF93DF93CDB7DEB76C97AB
:100FF000DEBFCDBF1092E9008091E80083FF25C0DD
:1010000068E0CE0145960E94320382EF8093E800AB
:101010008D8987FF39C09091E80090FFFCCF982F11
:10102000907609F034C19E894F89588D2F89F88CAC
:10103000911131C0803861F58091E9018093F10010
:101040001092F1008EEF8093E8006C960FB6F89442
:10105000DEBF0FBECDBFDF91CF91FF91EF91BF916A
:10106000AF919F918F917F916F915F914F913F9140
:101070002F911F910F91FF90EF90DF90CF900F90E5
:101080000FBE0F901F9018959EEF9093E800C7CF6A
:101090001092F100D5CF913059F48111D3CF413066
:1010A000510581F68091E9018D7F8093E901CACFD6
:1010B000933049F48111C6CF4130510519F6809122
:1010C000E9018260F2CF953041F48091E80080FF21
:1010D000FCCF20682093E300B5CF963009F0A9C07B
:1010E0000B8D1C8D22E01092E9001092E501109208
:1010F000E401F2122EC01092E3011092E2010E946C
:10110000A6031F8299E09983FA8291E09E8390EA78
:1011100098879AEF99872091E4013091E501275F44
:101120003F4F3C832B838D831092E9001092E501A1
:101130001092E4011093E3010093E20149E050E0D2
:10114000BE016F5F7F4F80E00E9465020E94A60390
:1011500079CF1093E3010093E2010E943F03DC0189
:1011600012960D911C910115110509F451C1D80178
:10117000ED91FC910480F581E02DBE016B5E7F4F07
:10118000C8010995009709F03EC1F8010085118555
:10119000EACFF3E0FF120EC08F89882309F440C024
:1011A000823061F440E860E180E991E00E9432021F
:1011B000811148CF81E28093EB0047CF813029F441
:1011C00040E86BE084E891E0F1CF833099F70E942A
:1011D0003F03DC011296ED90FC908E010F5F1F4FD4
:1011E0006801E114F10479F0D701ED91FC910680DA
:1011F000F781E02DB801C7010995080F111DF7010E
:10120000E084F184EECFD8011C92F6010190002019
:10121000E9F73197BF016C197D0940E0C601C6CFDF
:101220006EE671E0FB01449150E080E80E946502A7
:1012300009CF973009F4BECF983021F481E0809334
:10124000F10000CF993009F0FDCE837009F0B2CFE4
:10125000EDE0F1E081E031E096E32191222371F0AD
:101260008093E9003093EB00DF0111972C912093DC
:10127000EC009093ED008F5F873079F78EE78093D5
:10128000EA001092EA008F8980930402DBCE8B8DF6
:101290009C8D1092E9001092E5011092E401909368
:1012A000E3018093E201898D811192C08E899D892D
:1012B000913A49F4813209F07DCF47E050E064E093
:1012C00071E080E0B3CF913209F074CF833269F4DA
:1012D0008F89988DB0E0A0E0809300019093010188
:1012E000A0930201B0930301ADCE803269F48091E6
:1012F000E80082FFFCCF67E084E091E00E943203C7
:101300008BEF8093E8009ECE823209F09BCE8F89CE
:1013100080930B01EEEFFFE7859194918B3F9C4DFD
:1013200051F1E0E0F8E08091040190910501A09175
:101330000601B0910701803B9440A105B105F1F48D
:1013400080910B0180FD1AC0EE3F8AE0F80789F515
:1013500087E797E791838083809160008093E6011F
:1013600088E19BE00FB6F894A895809360000FBECB
:101370009093600067CEEEEFFAE0D5CF8081918147
:101380008737974709F05ECEA89580916000886105
:10139000809360008091E60180936000EE3F2AE038
:1013A000F20789F08091FE0A9091FF0A9183808371
:1013B00049CE808191818737980751F29093FF0A37
:1013C0008093FE0AC5CF1092FF0A1092FE0A3ACE11
:1013D0000E943F03DC0112960D911C91011511052D
:1013E00009F4E8CED801ED91FC910190F081E02D57
:1013F000BE016B5E7F4FC8010995811123CEF801B4
:1014000000851185EBCF181619060CF41BCED2CE31
:10141000F1E0FF12BECE62E771E004CFCF931092ED
:1014200008021092070288EE93E0A0E0B0E08093FB
:10143000090290930A02A0930B02B0930C028CE76E
:1014400091E090930602809305028FEF9FEF9093B7
:1014500012028093110210927F0210927E028AE99A
:1014600091E090937D0280937C02809174028111BF
:1014700013C010926F0210926E0288E292E0909375
:101480007102809370028FE290E0909373028093D8
:10149000720281E0809374028091660281112AC0F9
:1014A000C1E0C0935902C0935A028FE592E0909335
:1014B0005C0280935B0210925E0210925D028EE8E5
:1014C00091E090935602809355021092610210921F
:1014D00060021092630210926202C0936402C09391
:1014E000650281EC80935F020E943F030E945701D6
:1014F000C0936602E0916002F0916102309719F5A5
:101500008EE692E090936102809360028091620285
:10151000909163022091720230917302820F931FA7
:10152000909363028093620282EA91E080933A0191
:1015300084EA91E080933B0186EA91E080933E014A
:10154000CF910895FC01808191810097D9F78EE6B3
:1015500092E091838083DACFCF93DF9300D000D0E5
:1015600000D0CDB7DEB7789484B5826084BD84B5F1
:10157000816084BD85B5826085BD85B5816085BD8E
:1015800080916E00816080936E0010928100809146
:1015900081008260809381008091810081608093CE
:1015A0008100809180008160809380008091910013
:1015B000826080939100809191008160809391007E
:1015C000809190008160809390008091C100846040
:1015D0008093C1008091C10082608093C10080919E
:1015E000C10081608093C1008091C30081608093BD
:1015F000C3008091C00082608093C0008091C200CF
:1016000081608093C20080917A00846080937A0028
:1016100080917A00826080937A0080917A00816064
:1016200080937A0080917A00806880937A0010928B
:1016300004021092E9011092E8018091D7008160C4
:101640008093D70080EA8093D80089B5806189BDF6
:1016500089B5826089BD09B400FEFDCF0E94EC010E
:101660008091D8008F7C80618093D8008091E000C9
:10167000807F8093E0008091E1008E7E8093E10086
:101680008DE08093E200559A209A2CE531E0A2E5A6
:10169000B1E02A173B0749F5ACE5B1E0F1E0A83726
:1016A000BF0709F44AC08D919D919927FC01E6512D
:1016B000FE4F249185539E4FFC018491882371F342
:1016C00090E0880F991FFC01E155FE4F65917491E0
:1016D000FC01EF55FE4F859194918FB7F894FB0173
:1016E0009081922B90838FBFD9CF8D919D91992717
:1016F000FC01E651FE4F449185539E4FFC018491BD
:10170000882309F4C6CF90E0880F991FFC01E155AA
:10171000FE4FE590F490FC01EF55FE4F65917491FA
:101720009FB7F894F7018081409584238083FB0163
:101730008081842380839FBFACCF8FEF9FEF9093F6
:101740001202809311022CE5C22E21E0D22E412CF0
:10175000512C3201D6011C91B2E0CB0ED11C61E0BC
:10176000812F0E94BB04720192E5292E91E0392E4F
:10177000812C912C5401F101219131911F013327CA
:10178000F901E75FFD4F8491F901E651FE4F449165
:101790004A83F901E553FE4F54915983552309F4C7
:1017A00073C081110E946F046981E62FF0E0EE0F93
:1017B000FF1FE354FE4FA591B491EC917A817E23F3
:1017C00009F462C088EA91E00E949B06C501B40159
:1017D0000E94A8068DEA91E00E949B06C301B20117
:1017E0000E94A80686EB91E00E949B068FEB91E099
:1017F0000E949B06F701ED5EFE4F608185E092E05E
:101800000E94ED038FEB91E00E949B06B7010F2C25
:10181000000C880B990B0E94A8068FEB91E00E94A8
:101820009B0621E030E040E050E060E070E080E0C6
:1018300090E00E2D0E94880DE091F2012E2B209356
:10184000F2012091F301322B3093F3012091F40146
:10185000422B4093F4012091F501522B5093F50156
:101860002091F601622B6093F6012091F701722B13
:101870007093F7012091F801822B8093F8018091F9
:10188000F901982B9093F9018FEF881A980AA80A0A
:10189000B80A9EE0E90EF11CA5E08A169104A104A5
:1018A000B10409F068CF60E0812F0E94BB04BFEF54
:1018B0004B1A5B0A6B0A7B0AEEE04E165104610478
:1018C000710409F047CF7091EA016091EB015091EA
:1018D000EC014091ED013091EE012091EF019091EA
:1018E000F0018091F101F091F201FC83A091F301EC
:1018F000AE831091F401B090F501A090F6019090A4
:10190000F7018090F8017090F901A72FA095F62FAC
:10191000F095E52FE095642E6094532E5094422E5E
:101920004094392E3094282E2094BC81BA23B98358
:10193000AE81AF23AA83E123EB836B205A20492099
:1019400038202720BC81B095EE81E0951095B094A9
:10195000A094909480947094B723BC83E623EE8384
:101960001523B422A322922289227822C12CD12CC1
:1019700076012C813E81412F5B2D6A2D792D882D9A
:10198000972D0C2D0E94A30D217030E040E050E017
:1019900060E070E080E090E0A0E00E94BE0DA1F069
:1019A000F601ED5EFE4F60818CE792E00E94D90562
:1019B00082EC91E00E949B06C701B6010E94A80636
:1019C00080EC91E00E949B06FFEFCF1ADF0AEF0A3E
:1019D000FF0A40E4C416D104E104F10451F6C12C1D
:1019E000D12C760129813A814B81562D652D742D9C
:1019F000832D922D0C2D0E94A30D217030E040E02C
:101A000050E060E070E080E090E0A0E00E94BE0D59
:101A1000A1F0F601ED5EFE4F60818CE792E00E943E
:101A200019068CEC91E00E949B06C701B6010E944A
:101A3000A80680EC91E00E949B065FEFC51AD50ACC
:101A4000E50AF50A60E4C616D104E104F10451F692
:101A50008091F2018093EA018091F3018093EB0180
:101A60008091F4018093EC018091F5018093ED0168
:101A70008091F6018093EE018091F7018093EF0150
:101A80008091F8018093F0018091F9018093F10138
:101A90001092F2011092F3011092F4011092F501EC
:101AA0001092F6011092F7011092F8011092F901CC
:101AB00080E090E0892B09F446CE0E94000043CEDE
:101AC000A1E21A2EAA1BBB1BFD010DC0AA1FBB1F42
:101AD000EE1FFF1FA217B307E407F50720F0A21BB4
:101AE000B30BE40BF50B661F771F881F991F1A9421
:101AF00069F760957095809590959B01AC01BD014B
:101B0000CF010895EE0FFF1F0590F491E02D099489
:101B1000002E083090F0982F872F762F652F542FA6
:101B2000432F322F22270850F4CF220F331F441F98
:101B3000551F661F771F881F991F0A95B2F7002D42
:101B4000089597FD1094002E083098F00850232F28
:101B5000342F452F562F672F782F892F912DF4CFB3
:101B600015949795879577956795579547953795E8
:101B700027950A95AAF71124002D08950024A7FDA2
:101B800000942A1730054005500560057005800552
:081B900090050895F894FFCFC1
:101B9800FFFFFFFF00E100000000000000C180819E
:101BA80000000060313233343536373839302D3D56
:101BB800B2B351776572747975694F705B5DB0C166
:101BC8004173646667686A6B6C3B00000081007A49
:101BD800786376626E6D2C2E2F8500808382208636
:101BE800878412001300140015001600000001007D
:101BF80002000300040005000600070008000900B1
:101C08000A000B000C000D0000000000ED03D703D4
:101C18000E04030455041304310400000000E90411
:101C2800620527050C05000000008106AD05980631
:101C38009706270023007C00526F77200020436F0F
:101C48006C756D6E20002070726573736564000D8D
:101C58000A0052656C656173696E6700507265733E
:061C680073696E670000C5
:00000001FF
